{
  "_format": "hh-sol-artifact-1",
  "contractName": "TgNft",
  "sourceName": "contracts/RicettaNft.sol",
  "abi": [
    {
      "inputs": [],
      "stateMutability": "nonpayable",
      "type": "constructor"
    },
    {
      "anonymous": false,
      "inputs": [
        {
          "indexed": true,
          "internalType": "address",
          "name": "owner",
          "type": "address"
        },
        {
          "indexed": true,
          "internalType": "address",
          "name": "approved",
          "type": "address"
        },
        {
          "indexed": true,
          "internalType": "uint256",
          "name": "tokenId",
          "type": "uint256"
        }
      ],
      "name": "Approval",
      "type": "event"
    },
    {
      "anonymous": false,
      "inputs": [
        {
          "indexed": true,
          "internalType": "address",
          "name": "owner",
          "type": "address"
        },
        {
          "indexed": true,
          "internalType": "address",
          "name": "operator",
          "type": "address"
        },
        {
          "indexed": false,
          "internalType": "bool",
          "name": "approved",
          "type": "bool"
        }
      ],
      "name": "ApprovalForAll",
      "type": "event"
    },
    {
      "anonymous": false,
      "inputs": [
        {
          "indexed": true,
          "internalType": "address",
          "name": "from",
          "type": "address"
        },
        {
          "indexed": true,
          "internalType": "address",
          "name": "to",
          "type": "address"
        },
        {
          "indexed": true,
          "internalType": "uint256",
          "name": "tokenId",
          "type": "uint256"
        }
      ],
      "name": "Transfer",
      "type": "event"
    },
    {
      "inputs": [
        {
          "internalType": "uint256",
          "name": "_newItemId",
          "type": "uint256"
        }
      ],
      "name": "ConfrontoId",
      "outputs": [
        {
          "internalType": "bool",
          "name": "",
          "type": "bool"
        }
      ],
      "stateMutability": "view",
      "type": "function"
    },
    {
      "inputs": [
        {
          "internalType": "address",
          "name": "to",
          "type": "address"
        },
        {
          "internalType": "uint256",
          "name": "tokenId",
          "type": "uint256"
        }
      ],
      "name": "approve",
      "outputs": [],
      "stateMutability": "nonpayable",
      "type": "function"
    },
    {
      "inputs": [
        {
          "internalType": "address",
          "name": "owner",
          "type": "address"
        }
      ],
      "name": "balanceOf",
      "outputs": [
        {
          "internalType": "uint256",
          "name": "",
          "type": "uint256"
        }
      ],
      "stateMutability": "view",
      "type": "function"
    },
    {
      "inputs": [
        {
          "internalType": "uint256",
          "name": "tokenId",
          "type": "uint256"
        }
      ],
      "name": "getApproved",
      "outputs": [
        {
          "internalType": "address",
          "name": "",
          "type": "address"
        }
      ],
      "stateMutability": "view",
      "type": "function"
    },
    {
      "inputs": [],
      "name": "getRarity",
      "outputs": [
        {
          "internalType": "string",
          "name": "",
          "type": "string"
        }
      ],
      "stateMutability": "nonpayable",
      "type": "function"
    },
    {
      "inputs": [
        {
          "internalType": "address",
          "name": "owner",
          "type": "address"
        },
        {
          "internalType": "address",
          "name": "operator",
          "type": "address"
        }
      ],
      "name": "isApprovedForAll",
      "outputs": [
        {
          "internalType": "bool",
          "name": "",
          "type": "bool"
        }
      ],
      "stateMutability": "view",
      "type": "function"
    },
    {
      "inputs": [],
      "name": "makeAnRicettaNft",
      "outputs": [],
      "stateMutability": "nonpayable",
      "type": "function"
    },
    {
      "inputs": [],
      "name": "name",
      "outputs": [
        {
          "internalType": "string",
          "name": "",
          "type": "string"
        }
      ],
      "stateMutability": "view",
      "type": "function"
    },
    {
      "inputs": [
        {
          "internalType": "uint256",
          "name": "tokenId",
          "type": "uint256"
        }
      ],
      "name": "ownerOf",
      "outputs": [
        {
          "internalType": "address",
          "name": "",
          "type": "address"
        }
      ],
      "stateMutability": "view",
      "type": "function"
    },
    {
      "inputs": [
        {
          "internalType": "address",
          "name": "from",
          "type": "address"
        },
        {
          "internalType": "address",
          "name": "to",
          "type": "address"
        },
        {
          "internalType": "uint256",
          "name": "tokenId",
          "type": "uint256"
        }
      ],
      "name": "safeTransferFrom",
      "outputs": [],
      "stateMutability": "nonpayable",
      "type": "function"
    },
    {
      "inputs": [
        {
          "internalType": "address",
          "name": "from",
          "type": "address"
        },
        {
          "internalType": "address",
          "name": "to",
          "type": "address"
        },
        {
          "internalType": "uint256",
          "name": "tokenId",
          "type": "uint256"
        },
        {
          "internalType": "bytes",
          "name": "data",
          "type": "bytes"
        }
      ],
      "name": "safeTransferFrom",
      "outputs": [],
      "stateMutability": "nonpayable",
      "type": "function"
    },
    {
      "inputs": [
        {
          "internalType": "address",
          "name": "operator",
          "type": "address"
        },
        {
          "internalType": "bool",
          "name": "approved",
          "type": "bool"
        }
      ],
      "name": "setApprovalForAll",
      "outputs": [],
      "stateMutability": "nonpayable",
      "type": "function"
    },
    {
      "inputs": [
        {
          "internalType": "bytes4",
          "name": "interfaceId",
          "type": "bytes4"
        }
      ],
      "name": "supportsInterface",
      "outputs": [
        {
          "internalType": "bool",
          "name": "",
          "type": "bool"
        }
      ],
      "stateMutability": "view",
      "type": "function"
    },
    {
      "inputs": [],
      "name": "symbol",
      "outputs": [
        {
          "internalType": "string",
          "name": "",
          "type": "string"
        }
      ],
      "stateMutability": "view",
      "type": "function"
    },
    {
      "inputs": [
        {
          "internalType": "uint256",
          "name": "tokenId",
          "type": "uint256"
        }
      ],
      "name": "tokenURI",
      "outputs": [
        {
          "internalType": "string",
          "name": "",
          "type": "string"
        }
      ],
      "stateMutability": "view",
      "type": "function"
    },
    {
      "inputs": [
        {
          "internalType": "address",
          "name": "from",
          "type": "address"
        },
        {
          "internalType": "address",
          "name": "to",
          "type": "address"
        },
        {
          "internalType": "uint256",
          "name": "tokenId",
          "type": "uint256"
        }
      ],
      "name": "transferFrom",
      "outputs": [],
      "stateMutability": "nonpayable",
      "type": "function"
    }
  ],
  "bytecode": "0x60806040526103e860095560016009546200001b919062000333565b600a55604660646009546200003191906200039d565b6200003d9190620003d5565b600b55601960646009546200005391906200039d565b6200005f9190620003d5565b600c55600560646009546200007591906200039d565b620000819190620003d5565b600d556040518060400160405280601f81526020017f68747470733a2f2f692e696d6775722e636f6d2f7364646d696c4e2e706e6700815250600f9081620000ca919062000690565b506040518060400160405280601d81526020017f68747470733a2f2f696d6775722e636f6d2f697154627069752e706e670000008152506010908162000111919062000690565b506040518060400160405280601d81526020017f68747470733a2f2f696d6775722e636f6d2f4b624e744d77322e706e670000008152506011908162000158919062000690565b503480156200016657600080fd5b50604051806060016040528060288152602001620041a4602891396040518060400160405280600381526020017f54475300000000000000000000000000000000000000000000000000000000008152508160009081620001c8919062000690565b508060019081620001da919062000690565b505050620002286040518060400160405280602081526020017f53746f20636f73747275656e646f20696c206d696f20636f6e74726174746f218152506200022e60201b62000f531760201c565b6200082a565b620002ce8160405160240162000245919062000806565b6040516020818303038152906040527f41304fac000000000000000000000000000000000000000000000000000000007bffffffffffffffffffffffffffffffffffffffffffffffffffffffff19166020820180517bffffffffffffffffffffffffffffffffffffffffffffffffffffffff8381831617835250505050620002d160201b60201c565b50565b60008151905060006a636f6e736f6c652e6c6f679050602083016000808483855afa5050505050565b6000819050919050565b7f4e487b7100000000000000000000000000000000000000000000000000000000600052601160045260246000fd5b60006200034082620002fa565b91506200034d83620002fa565b925082820390508181111562000368576200036762000304565b5b92915050565b7f4e487b7100000000000000000000000000000000000000000000000000000000600052601260045260246000fd5b6000620003aa82620002fa565b9150620003b783620002fa565b925082620003ca57620003c96200036e565b5b828204905092915050565b6000620003e282620002fa565b9150620003ef83620002fa565b9250828202620003ff81620002fa565b9150828204841483151762000419576200041862000304565b5b5092915050565b600081519050919050565b7f4e487b7100000000000000000000000000000000000000000000000000000000600052604160045260246000fd5b7f4e487b7100000000000000000000000000000000000000000000000000000000600052602260045260246000fd5b60006002820490506001821680620004a257607f821691505b602082108103620004b857620004b76200045a565b5b50919050565b60008190508160005260206000209050919050565b60006020601f8301049050919050565b600082821b905092915050565b600060088302620005227fffffffffffffffffffffffffffffffffffffffffffffffffffffffffffffffff82620004e3565b6200052e8683620004e3565b95508019841693508086168417925050509392505050565b6000819050919050565b6000620005716200056b6200056584620002fa565b62000546565b620002fa565b9050919050565b6000819050919050565b6200058d8362000550565b620005a56200059c8262000578565b848454620004f0565b825550505050565b600090565b620005bc620005ad565b620005c981848462000582565b505050565b5b81811015620005f157620005e5600082620005b2565b600181019050620005cf565b5050565b601f82111562000640576200060a81620004be565b6200061584620004d3565b8101602085101562000625578190505b6200063d6200063485620004d3565b830182620005ce565b50505b505050565b600082821c905092915050565b6000620006656000198460080262000645565b1980831691505092915050565b600062000680838362000652565b9150826002028217905092915050565b6200069b8262000420565b67ffffffffffffffff811115620006b757620006b66200042b565b5b620006c3825462000489565b620006d0828285620005f5565b600060209050601f831160018114620007085760008415620006f3578287015190505b620006ff858262000672565b8655506200076f565b601f1984166200071886620004be565b60005b8281101562000742578489015182556001820191506020850194506020810190506200071b565b868310156200076257848901516200075e601f89168262000652565b8355505b6001600288020188555050505b505050505050565b600082825260208201905092915050565b60005b83811015620007a85780820151818401526020810190506200078b565b60008484015250505050565b6000601f19601f8301169050919050565b6000620007d28262000420565b620007de818562000777565b9350620007f081856020860162000788565b620007fb81620007b4565b840191505092915050565b60006020820190508181036000830152620008228184620007c5565b905092915050565b61396a806200083a6000396000f3fe608060405234801561001057600080fd5b50600436106101005760003560e01c806370a0823111610097578063b88d4fde11610066578063b88d4fde146102bf578063c87b56dd146102db578063e0e738891461030b578063e985e9c51461031557610100565b806370a08231146102375780637b32cdba1461026757806395d89b4114610285578063a22cb465146102a357610100565b806323b872dd116100d357806323b872dd1461019f57806342842e0e146101bb5780635b2ad031146101d75780636352211e1461020757610100565b806301ffc9a71461010557806306fdde0314610135578063081812fc14610153578063095ea7b314610183575b600080fd5b61011f600480360381019061011a91906122a1565b610345565b60405161012c91906122e9565b60405180910390f35b61013d610427565b60405161014a9190612394565b60405180910390f35b61016d600480360381019061016891906123ec565b6104b9565b60405161017a919061245a565b60405180910390f35b61019d600480360381019061019891906124a1565b6104ff565b005b6101b960048036038101906101b491906124e1565b610616565b005b6101d560048036038101906101d091906124e1565b610676565b005b6101f160048036038101906101ec91906123ec565b610696565b6040516101fe91906122e9565b60405180910390f35b610221600480360381019061021c91906123ec565b6106fa565b60405161022e919061245a565b60405180910390f35b610251600480360381019061024c9190612534565b610780565b60405161025e9190612570565b60405180910390f35b61026f610837565b60405161027c9190612394565b60405180910390f35b61028d6108c9565b60405161029a9190612394565b60405180910390f35b6102bd60048036038101906102b891906125b7565b61095b565b005b6102d960048036038101906102d4919061272c565b610971565b005b6102f560048036038101906102f091906123ec565b6109d3565b6040516103029190612394565b60405180910390f35b610313610ae5565b005b61032f600480360381019061032a91906127af565b610ebf565b60405161033c91906122e9565b60405180910390f35b60007f80ac58cd000000000000000000000000000000000000000000000000000000007bffffffffffffffffffffffffffffffffffffffffffffffffffffffff1916827bffffffffffffffffffffffffffffffffffffffffffffffffffffffff1916148061041057507f5b5e139f000000000000000000000000000000000000000000000000000000007bffffffffffffffffffffffffffffffffffffffffffffffffffffffff1916827bffffffffffffffffffffffffffffffffffffffffffffffffffffffff1916145b80610420575061041f82610fec565b5b9050919050565b6060600080546104369061281e565b80601f01602080910402602001604051908101604052809291908181526020018280546104629061281e565b80156104af5780601f10610484576101008083540402835291602001916104af565b820191906000526020600020905b81548152906001019060200180831161049257829003601f168201915b5050505050905090565b60006104c482611056565b6004600083815260200190815260200160002060009054906101000a900473ffffffffffffffffffffffffffffffffffffffff169050919050565b600061050a826106fa565b90508073ffffffffffffffffffffffffffffffffffffffff168373ffffffffffffffffffffffffffffffffffffffff160361057a576040517f08c379a0000000000000000000000000000000000000000000000000000000008152600401610571906128c1565b60405180910390fd5b8073ffffffffffffffffffffffffffffffffffffffff166105996110a1565b73ffffffffffffffffffffffffffffffffffffffff1614806105c857506105c7816105c26110a1565b610ebf565b5b610607576040517f08c379a00000000000000000000000000000000000000000000000000000000081526004016105fe90612953565b60405180910390fd5b61061183836110a9565b505050565b6106276106216110a1565b82611162565b610666576040517f08c379a000000000000000000000000000000000000000000000000000000000815260040161065d906129e5565b60405180910390fd5b6106718383836111f7565b505050565b61069183838360405180602001604052806000815250610971565b505050565b60006106d66040518060400160405280601781526020017f53746f20636f6e66726f6e74616e646f20676c69204964000000000000000000815250610f53565b6106e060076114f0565b8210156106f057600090506106f5565b600190505b919050565b600080610706836114fe565b9050600073ffffffffffffffffffffffffffffffffffffffff168173ffffffffffffffffffffffffffffffffffffffff1603610777576040517f08c379a000000000000000000000000000000000000000000000000000000000815260040161076e90612a51565b60405180910390fd5b80915050919050565b60008073ffffffffffffffffffffffffffffffffffffffff168273ffffffffffffffffffffffffffffffffffffffff16036107f0576040517f08c379a00000000000000000000000000000000000000000000000000000000081526004016107e790612ae3565b60405180910390fd5b600360008373ffffffffffffffffffffffffffffffffffffffff1673ffffffffffffffffffffffffffffffffffffffff168152602001908152602001600020549050919050565b6060600e80546108469061281e565b80601f01602080910402602001604051908101604052809291908181526020018280546108729061281e565b80156108bf5780601f10610894576101008083540402835291602001916108bf565b820191906000526020600020905b8154815290600101906020018083116108a257829003601f168201915b5050505050905090565b6060600180546108d89061281e565b80601f01602080910402602001604051908101604052809291908181526020018280546109049061281e565b80156109515780601f1061092657610100808354040283529160200191610951565b820191906000526020600020905b81548152906001019060200180831161093457829003601f168201915b5050505050905090565b61096d6109666110a1565b838361153b565b5050565b61098261097c6110a1565b83611162565b6109c1576040517f08c379a00000000000000000000000000000000000000000000000000000000081526004016109b8906129e5565b60405180910390fd5b6109cd848484846116a7565b50505050565b60606109de82611056565b60006006600084815260200190815260200160002080546109fe9061281e565b80601f0160208091040260200160405190810160405280929190818152602001828054610a2a9061281e565b8015610a775780601f10610a4c57610100808354040283529160200191610a77565b820191906000526020600020905b815481529060010190602001808311610a5a57829003601f168201915b505050505090506000610a88611703565b90506000815103610a9d578192505050610ae0565b600082511115610ad2578082604051602001610aba929190612b3f565b60405160208183030381529060405292505050610ae0565b610adb8461171a565b925050505b919050565b6000610af160076114f0565b90506060600a548211158015610b0c5750610b0b82610696565b5b610b1557600080fd5b6040518060400160405280600281526020017f202300000000000000000000000000000000000000000000000000000000000081525060089081610b599190612d0f565b506008610b6583611782565b604051602001610b76929190612e64565b60405160208183030381529060405260089081610b939190612d0f565b50600d54821015610c1b576040518060400160405280600981526020017f6c6567656e646172790000000000000000000000000000000000000000000000815250600e9081610be29190612d0f565b50610c186008600e60086011600e604051602001610c04959493929190613076565b604051602081830303815290604052611850565b90505b600d548210158015610c2e5750600c5482105b15610cb0576040518060400160405280600481526020017f7261726500000000000000000000000000000000000000000000000000000000815250600e9081610c779190612d0f565b50610cad6008600e60086010600e604051602001610c99959493929190613076565b604051602081830303815290604052611850565b90505b600c548210158015610cc35750600b5482105b15610d45576040518060400160405280600681526020017f636f6d6d6f6e0000000000000000000000000000000000000000000000000000815250600e9081610d0c9190612d0f565b50610d426008600e6008600f600e604051602001610d2e9594939291906131c1565b604051602081830303815290604052611850565b90505b600081604051602001610d58919061329a565b6040516020818303038152906040529050610da76040518060400160405280601581526020017f0a2d2d2d2d2d2d2d2d2d2d2d2d2d2d2d2d2d2d2d2d0000000000000000000000815250610f53565b610db081610f53565b610dee6040518060400160405280601581526020017f2d2d2d2d2d2d2d2d2d2d2d2d2d2d2d2d2d2d2d2d0a0000000000000000000000815250610f53565b610df833846119e7565b610e028382611a05565b610e0c6007611a72565b610eba6040518060600160405280603d81526020016138f8603d91398433600e8054610e379061281e565b80601f0160208091040260200160405190810160405280929190818152602001828054610e639061281e565b8015610eb05780601f10610e8557610100808354040283529160200191610eb0565b820191906000526020600020905b815481529060010190602001808311610e9357829003601f168201915b5050505050611a88565b505050565b6000600560008473ffffffffffffffffffffffffffffffffffffffff1673ffffffffffffffffffffffffffffffffffffffff16815260200190815260200160002060008373ffffffffffffffffffffffffffffffffffffffff1673ffffffffffffffffffffffffffffffffffffffff16815260200190815260200160002060009054906101000a900460ff16905092915050565b610fe981604051602401610f679190612394565b6040516020818303038152906040527f41304fac000000000000000000000000000000000000000000000000000000007bffffffffffffffffffffffffffffffffffffffffffffffffffffffff19166020820180517bffffffffffffffffffffffffffffffffffffffffffffffffffffffff8381831617835250505050611b2a565b50565b60007f01ffc9a7000000000000000000000000000000000000000000000000000000007bffffffffffffffffffffffffffffffffffffffffffffffffffffffff1916827bffffffffffffffffffffffffffffffffffffffffffffffffffffffff1916149050919050565b61105f81611b53565b61109e576040517f08c379a000000000000000000000000000000000000000000000000000000000815260040161109590612a51565b60405180910390fd5b50565b600033905090565b816004600083815260200190815260200160002060006101000a81548173ffffffffffffffffffffffffffffffffffffffff021916908373ffffffffffffffffffffffffffffffffffffffff160217905550808273ffffffffffffffffffffffffffffffffffffffff1661111c836106fa565b73ffffffffffffffffffffffffffffffffffffffff167f8c5be1e5ebec7d5bd14f71427d1e84f3dd0314c0f7b2291e5b200ac8c7c3b92560405160405180910390a45050565b60008061116e836106fa565b90508073ffffffffffffffffffffffffffffffffffffffff168473ffffffffffffffffffffffffffffffffffffffff1614806111b057506111af8185610ebf565b5b806111ee57508373ffffffffffffffffffffffffffffffffffffffff166111d6846104b9565b73ffffffffffffffffffffffffffffffffffffffff16145b91505092915050565b8273ffffffffffffffffffffffffffffffffffffffff16611217826106fa565b73ffffffffffffffffffffffffffffffffffffffff161461126d576040517f08c379a00000000000000000000000000000000000000000000000000000000081526004016112649061332e565b60405180910390fd5b600073ffffffffffffffffffffffffffffffffffffffff168273ffffffffffffffffffffffffffffffffffffffff16036112dc576040517f08c379a00000000000000000000000000000000000000000000000000000000081526004016112d3906133c0565b60405180910390fd5b6112e98383836001611b94565b8273ffffffffffffffffffffffffffffffffffffffff16611309826106fa565b73ffffffffffffffffffffffffffffffffffffffff161461135f576040517f08c379a00000000000000000000000000000000000000000000000000000000081526004016113569061332e565b60405180910390fd5b6004600082815260200190815260200160002060006101000a81549073ffffffffffffffffffffffffffffffffffffffff02191690556001600360008573ffffffffffffffffffffffffffffffffffffffff1673ffffffffffffffffffffffffffffffffffffffff168152602001908152602001600020600082825403925050819055506001600360008473ffffffffffffffffffffffffffffffffffffffff1673ffffffffffffffffffffffffffffffffffffffff16815260200190815260200160002060008282540192505081905550816002600083815260200190815260200160002060006101000a81548173ffffffffffffffffffffffffffffffffffffffff021916908373ffffffffffffffffffffffffffffffffffffffff160217905550808273ffffffffffffffffffffffffffffffffffffffff168473ffffffffffffffffffffffffffffffffffffffff167fddf252ad1be2c89b69c2b068fc378daa952ba7f163c4a11628f55a4df523b3ef60405160405180910390a46114eb8383836001611cba565b505050565b600081600001549050919050565b60006002600083815260200190815260200160002060009054906101000a900473ffffffffffffffffffffffffffffffffffffffff169050919050565b8173ffffffffffffffffffffffffffffffffffffffff168373ffffffffffffffffffffffffffffffffffffffff16036115a9576040517f08c379a00000000000000000000000000000000000000000000000000000000081526004016115a09061342c565b60405180910390fd5b80600560008573ffffffffffffffffffffffffffffffffffffffff1673ffffffffffffffffffffffffffffffffffffffff16815260200190815260200160002060008473ffffffffffffffffffffffffffffffffffffffff1673ffffffffffffffffffffffffffffffffffffffff16815260200190815260200160002060006101000a81548160ff0219169083151502179055508173ffffffffffffffffffffffffffffffffffffffff168373ffffffffffffffffffffffffffffffffffffffff167f17307eab39ab6107e8899845ad3d59bd9653f200f220920489ca2b5937696c318360405161169a91906122e9565b60405180910390a3505050565b6116b28484846111f7565b6116be84848484611cc0565b6116fd576040517f08c379a00000000000000000000000000000000000000000000000000000000081526004016116f4906134be565b60405180910390fd5b50505050565b606060405180602001604052806000815250905090565b606061172582611056565b600061172f611703565b9050600081511161174f576040518060200160405280600081525061177a565b8061175984611782565b60405160200161176a929190612b3f565b6040516020818303038152906040525b915050919050565b60606000600161179184611e47565b01905060008167ffffffffffffffff8111156117b0576117af612601565b5b6040519080825280601f01601f1916602001820160405280156117e25781602001600182028036833780820191505090505b509050600082602001820190505b600115611845578080600190039150507f3031323334353637383961626364656600000000000000000000000000000000600a86061a8153600a8581611839576118386134de565b5b049450600085036117f0575b819350505050919050565b60606000825190506000810361187857604051806020016040528060008152509150506119e2565b60006003600283611889919061353c565b6118939190613570565b600461189f91906135a1565b905060006020826118b0919061353c565b67ffffffffffffffff8111156118c9576118c8612601565b5b6040519080825280601f01601f1916602001820160405280156118fb5781602001600182028036833780820191505090505b50905060006040518060600160405280604081526020016138b8604091399050600181016020830160005b8681101561199f5760038101905062ffffff818a015116603f8160121c168401518060081b905060ff603f83600c1c1686015116810190508060081b905060ff603f8360061c1686015116810190508060081b905060ff603f831686015116810190508060e01b90508084526004840193505050611926565b5060038606600181146119b957600281146119c9576119d4565b613d3d60f01b60028303526119d4565b603d60f81b60018303525b508484525050819450505050505b919050565b611a01828260405180602001604052806000815250611f9a565b5050565b611a0e82611b53565b611a4d576040517f08c379a0000000000000000000000000000000000000000000000000000000008152600401611a4490613655565b60405180910390fd5b80600660008481526020019081526020016000209081611a6d9190612d0f565b505050565b6001816000016000828254019250508190555050565b611b2484848484604051602401611aa29493929190613675565b6040516020818303038152906040527f9ffb2f93000000000000000000000000000000000000000000000000000000007bffffffffffffffffffffffffffffffffffffffffffffffffffffffff19166020820180517bffffffffffffffffffffffffffffffffffffffffffffffffffffffff8381831617835250505050611b2a565b50505050565b60008151905060006a636f6e736f6c652e6c6f679050602083016000808483855afa5050505050565b60008073ffffffffffffffffffffffffffffffffffffffff16611b75836114fe565b73ffffffffffffffffffffffffffffffffffffffff1614159050919050565b6001811115611cb457600073ffffffffffffffffffffffffffffffffffffffff168473ffffffffffffffffffffffffffffffffffffffff1614611c285780600360008673ffffffffffffffffffffffffffffffffffffffff1673ffffffffffffffffffffffffffffffffffffffff1681526020019081526020016000206000828254611c2091906136c8565b925050819055505b600073ffffffffffffffffffffffffffffffffffffffff168373ffffffffffffffffffffffffffffffffffffffff1614611cb35780600360008573ffffffffffffffffffffffffffffffffffffffff1673ffffffffffffffffffffffffffffffffffffffff1681526020019081526020016000206000828254611cab919061353c565b925050819055505b5b50505050565b50505050565b6000611ce18473ffffffffffffffffffffffffffffffffffffffff16611ff5565b15611e3a578373ffffffffffffffffffffffffffffffffffffffff1663150b7a02611d0a6110a1565b8786866040518563ffffffff1660e01b8152600401611d2c9493929190613751565b6020604051808303816000875af1925050508015611d6857506040513d601f19601f82011682018060405250810190611d6591906137b2565b60015b611dea573d8060008114611d98576040519150601f19603f3d011682016040523d82523d6000602084013e611d9d565b606091505b506000815103611de2576040517f08c379a0000000000000000000000000000000000000000000000000000000008152600401611dd9906134be565b60405180910390fd5b805181602001fd5b63150b7a0260e01b7bffffffffffffffffffffffffffffffffffffffffffffffffffffffff1916817bffffffffffffffffffffffffffffffffffffffffffffffffffffffff191614915050611e3f565b600190505b949350505050565b600080600090507a184f03e93ff9f4daa797ed6e38ed64bf6a1f0100000000000000008310611ea5577a184f03e93ff9f4daa797ed6e38ed64bf6a1f0100000000000000008381611e9b57611e9a6134de565b5b0492506040810190505b6d04ee2d6d415b85acef81000000008310611ee2576d04ee2d6d415b85acef81000000008381611ed857611ed76134de565b5b0492506020810190505b662386f26fc100008310611f1157662386f26fc100008381611f0757611f066134de565b5b0492506010810190505b6305f5e1008310611f3a576305f5e1008381611f3057611f2f6134de565b5b0492506008810190505b6127108310611f5f576127108381611f5557611f546134de565b5b0492506004810190505b60648310611f825760648381611f7857611f776134de565b5b0492506002810190505b600a8310611f91576001810190505b80915050919050565b611fa48383612018565b611fb16000848484611cc0565b611ff0576040517f08c379a0000000000000000000000000000000000000000000000000000000008152600401611fe7906134be565b60405180910390fd5b505050565b6000808273ffffffffffffffffffffffffffffffffffffffff163b119050919050565b600073ffffffffffffffffffffffffffffffffffffffff168273ffffffffffffffffffffffffffffffffffffffff1603612087576040517f08c379a000000000000000000000000000000000000000000000000000000000815260040161207e9061382b565b60405180910390fd5b61209081611b53565b156120d0576040517f08c379a00000000000000000000000000000000000000000000000000000000081526004016120c790613897565b60405180910390fd5b6120de600083836001611b94565b6120e781611b53565b15612127576040517f08c379a000000000000000000000000000000000000000000000000000000000815260040161211e90613897565b60405180910390fd5b6001600360008473ffffffffffffffffffffffffffffffffffffffff1673ffffffffffffffffffffffffffffffffffffffff16815260200190815260200160002060008282540192505081905550816002600083815260200190815260200160002060006101000a81548173ffffffffffffffffffffffffffffffffffffffff021916908373ffffffffffffffffffffffffffffffffffffffff160217905550808273ffffffffffffffffffffffffffffffffffffffff16600073ffffffffffffffffffffffffffffffffffffffff167fddf252ad1be2c89b69c2b068fc378daa952ba7f163c4a11628f55a4df523b3ef60405160405180910390a4612231600083836001611cba565b5050565b6000604051905090565b600080fd5b600080fd5b60007fffffffff0000000000000000000000000000000000000000000000000000000082169050919050565b61227e81612249565b811461228957600080fd5b50565b60008135905061229b81612275565b92915050565b6000602082840312156122b7576122b661223f565b5b60006122c58482850161228c565b91505092915050565b60008115159050919050565b6122e3816122ce565b82525050565b60006020820190506122fe60008301846122da565b92915050565b600081519050919050565b600082825260208201905092915050565b60005b8381101561233e578082015181840152602081019050612323565b60008484015250505050565b6000601f19601f8301169050919050565b600061236682612304565b612370818561230f565b9350612380818560208601612320565b6123898161234a565b840191505092915050565b600060208201905081810360008301526123ae818461235b565b905092915050565b6000819050919050565b6123c9816123b6565b81146123d457600080fd5b50565b6000813590506123e6816123c0565b92915050565b6000602082840312156124025761240161223f565b5b6000612410848285016123d7565b91505092915050565b600073ffffffffffffffffffffffffffffffffffffffff82169050919050565b600061244482612419565b9050919050565b61245481612439565b82525050565b600060208201905061246f600083018461244b565b92915050565b61247e81612439565b811461248957600080fd5b50565b60008135905061249b81612475565b92915050565b600080604083850312156124b8576124b761223f565b5b60006124c68582860161248c565b92505060206124d7858286016123d7565b9150509250929050565b6000806000606084860312156124fa576124f961223f565b5b60006125088682870161248c565b93505060206125198682870161248c565b925050604061252a868287016123d7565b9150509250925092565b60006020828403121561254a5761254961223f565b5b60006125588482850161248c565b91505092915050565b61256a816123b6565b82525050565b60006020820190506125856000830184612561565b92915050565b612594816122ce565b811461259f57600080fd5b50565b6000813590506125b18161258b565b92915050565b600080604083850312156125ce576125cd61223f565b5b60006125dc8582860161248c565b92505060206125ed858286016125a2565b9150509250929050565b600080fd5b600080fd5b7f4e487b7100000000000000000000000000000000000000000000000000000000600052604160045260246000fd5b6126398261234a565b810181811067ffffffffffffffff8211171561265857612657612601565b5b80604052505050565b600061266b612235565b90506126778282612630565b919050565b600067ffffffffffffffff82111561269757612696612601565b5b6126a08261234a565b9050602081019050919050565b82818337600083830152505050565b60006126cf6126ca8461267c565b612661565b9050828152602081018484840111156126eb576126ea6125fc565b5b6126f68482856126ad565b509392505050565b600082601f830112612713576127126125f7565b5b81356127238482602086016126bc565b91505092915050565b600080600080608085870312156127465761274561223f565b5b60006127548782880161248c565b94505060206127658782880161248c565b9350506040612776878288016123d7565b925050606085013567ffffffffffffffff81111561279757612796612244565b5b6127a3878288016126fe565b91505092959194509250565b600080604083850312156127c6576127c561223f565b5b60006127d48582860161248c565b92505060206127e58582860161248c565b9150509250929050565b7f4e487b7100000000000000000000000000000000000000000000000000000000600052602260045260246000fd5b6000600282049050600182168061283657607f821691505b602082108103612849576128486127ef565b5b50919050565b7f4552433732313a20617070726f76616c20746f2063757272656e74206f776e6560008201527f7200000000000000000000000000000000000000000000000000000000000000602082015250565b60006128ab60218361230f565b91506128b68261284f565b604082019050919050565b600060208201905081810360008301526128da8161289e565b9050919050565b7f4552433732313a20617070726f76652063616c6c6572206973206e6f7420746f60008201527f6b656e206f776e6572206f7220617070726f76656420666f7220616c6c000000602082015250565b600061293d603d8361230f565b9150612948826128e1565b604082019050919050565b6000602082019050818103600083015261296c81612930565b9050919050565b7f4552433732313a2063616c6c6572206973206e6f7420746f6b656e206f776e6560008201527f72206f7220617070726f76656400000000000000000000000000000000000000602082015250565b60006129cf602d8361230f565b91506129da82612973565b604082019050919050565b600060208201905081810360008301526129fe816129c2565b9050919050565b7f4552433732313a20696e76616c696420746f6b656e2049440000000000000000600082015250565b6000612a3b60188361230f565b9150612a4682612a05565b602082019050919050565b60006020820190508181036000830152612a6a81612a2e565b9050919050565b7f4552433732313a2061646472657373207a65726f206973206e6f74206120766160008201527f6c6964206f776e65720000000000000000000000000000000000000000000000602082015250565b6000612acd60298361230f565b9150612ad882612a71565b604082019050919050565b60006020820190508181036000830152612afc81612ac0565b9050919050565b600081905092915050565b6000612b1982612304565b612b238185612b03565b9350612b33818560208601612320565b80840191505092915050565b6000612b4b8285612b0e565b9150612b578284612b0e565b91508190509392505050565b60008190508160005260206000209050919050565b60006020601f8301049050919050565b600082821b905092915050565b600060088302612bc57fffffffffffffffffffffffffffffffffffffffffffffffffffffffffffffffff82612b88565b612bcf8683612b88565b95508019841693508086168417925050509392505050565b6000819050919050565b6000612c0c612c07612c02846123b6565b612be7565b6123b6565b9050919050565b6000819050919050565b612c2683612bf1565b612c3a612c3282612c13565b848454612b95565b825550505050565b600090565b612c4f612c42565b612c5a818484612c1d565b505050565b5b81811015612c7e57612c73600082612c47565b600181019050612c60565b5050565b601f821115612cc357612c9481612b63565b612c9d84612b78565b81016020851015612cac578190505b612cc0612cb885612b78565b830182612c5f565b50505b505050565b600082821c905092915050565b6000612ce660001984600802612cc8565b1980831691505092915050565b6000612cff8383612cd5565b9150826002028217905092915050565b612d1882612304565b67ffffffffffffffff811115612d3157612d30612601565b5b612d3b825461281e565b612d46828285612c82565b600060209050601f831160018114612d795760008415612d67578287015190505b612d718582612cf3565b865550612dd9565b601f198416612d8786612b63565b60005b82811015612daf57848901518255600182019150602085019450602081019050612d8a565b86831015612dcc5784890151612dc8601f891682612cd5565b8355505b6001600288020188555050505b505050505050565b60008154612dee8161281e565b612df88186612b03565b94506001821660008114612e135760018114612e2857612e5b565b60ff1983168652811515820286019350612e5b565b612e3185612b63565b60005b83811015612e5357815481890152600182019150602081019050612e34565b838801955050505b50505092915050565b6000612e708285612de1565b9150612e7c8284612b0e565b91508190509392505050565b7f7b226e616d65223a202200000000000000000000000000000000000000000000600082015250565b6000612ebe600a83612b03565b9150612ec982612e88565b600a82019050919050565b7f222c20226465736372697074696f6e223a20225468697320697320746865207260008201527f6563697065200000000000000000000000000000000000000000000000000000602082015250565b6000612f30602683612b03565b9150612f3b82612ed4565b602682019050919050565b7f202066726f6d2074686520636f6c6c656374696f6e2000000000000000000000600082015250565b6000612f7c601683612b03565b9150612f8782612f46565b601682019050919050565b7f202e222c22696d616765223a2022000000000000000000000000000000000000600082015250565b6000612fc8600e83612b03565b9150612fd382612f92565b600e82019050919050565b7f222c22726172697479223a202200000000000000000000000000000000000000600082015250565b6000613014600d83612b03565b915061301f82612fde565b600d82019050919050565b7f227d000000000000000000000000000000000000000000000000000000000000600082015250565b6000613060600283612b03565b915061306b8261302a565b600282019050919050565b600061308182612eb1565b915061308d8288612de1565b915061309882612f23565b91506130a48287612de1565b91506130af82612f6f565b91506130bb8286612de1565b91506130c682612fbb565b91506130d28285612de1565b91506130dd82613007565b91506130e98284612de1565b91506130f482613053565b91508190509695505050505050565b7f222c2268656164223a20226469676974616c222c2264697368223a2022676c6f60008201527f77696e67222c226c6566742068616e64223a20226e6f6e65222c22726967687460208201527f2068616e64223a2022726f626f74696320666f726b222c22626f6479223a202260408201527f7769726573222c226261636b67726f756e64223a20226772616469656e74227d606082015250565b60006131ab608083612b03565b91506131b682613103565b608082019050919050565b60006131cc82612eb1565b91506131d88288612de1565b91506131e382612f23565b91506131ef8287612de1565b91506131fa82612f6f565b91506132068286612de1565b915061321182612fbb565b915061321d8285612de1565b915061322882613007565b91506132348284612de1565b915061323f8261319e565b91508190509695505050505050565b7f646174613a6170706c69636174696f6e2f6a736f6e3b6261736536342c000000600082015250565b6000613284601d83612b03565b915061328f8261324e565b601d82019050919050565b60006132a582613277565b91506132b18284612b0e565b915081905092915050565b7f4552433732313a207472616e736665722066726f6d20696e636f72726563742060008201527f6f776e6572000000000000000000000000000000000000000000000000000000602082015250565b600061331860258361230f565b9150613323826132bc565b604082019050919050565b600060208201905081810360008301526133478161330b565b9050919050565b7f4552433732313a207472616e7366657220746f20746865207a65726f2061646460008201527f7265737300000000000000000000000000000000000000000000000000000000602082015250565b60006133aa60248361230f565b91506133b58261334e565b604082019050919050565b600060208201905081810360008301526133d98161339d565b9050919050565b7f4552433732313a20617070726f766520746f2063616c6c657200000000000000600082015250565b600061341660198361230f565b9150613421826133e0565b602082019050919050565b6000602082019050818103600083015261344581613409565b9050919050565b7f4552433732313a207472616e7366657220746f206e6f6e20455243373231526560008201527f63656976657220696d706c656d656e7465720000000000000000000000000000602082015250565b60006134a860328361230f565b91506134b38261344c565b604082019050919050565b600060208201905081810360008301526134d78161349b565b9050919050565b7f4e487b7100000000000000000000000000000000000000000000000000000000600052601260045260246000fd5b7f4e487b7100000000000000000000000000000000000000000000000000000000600052601160045260246000fd5b6000613547826123b6565b9150613552836123b6565b925082820190508082111561356a5761356961350d565b5b92915050565b600061357b826123b6565b9150613586836123b6565b925082613596576135956134de565b5b828204905092915050565b60006135ac826123b6565b91506135b7836123b6565b92508282026135c5816123b6565b915082820484148315176135dc576135db61350d565b5b5092915050565b7f45524337323155524953746f726167653a2055524920736574206f66206e6f6e60008201527f6578697374656e7420746f6b656e000000000000000000000000000000000000602082015250565b600061363f602e8361230f565b915061364a826135e3565b604082019050919050565b6000602082019050818103600083015261366e81613632565b9050919050565b6000608082019050818103600083015261368f818761235b565b905061369e6020830186612561565b6136ab604083018561244b565b81810360608301526136bd818461235b565b905095945050505050565b60006136d3826123b6565b91506136de836123b6565b92508282039050818111156136f6576136f561350d565b5b92915050565b600081519050919050565b600082825260208201905092915050565b6000613723826136fc565b61372d8185613707565b935061373d818560208601612320565b6137468161234a565b840191505092915050565b6000608082019050613766600083018761244b565b613773602083018661244b565b6137806040830185612561565b81810360608301526137928184613718565b905095945050505050565b6000815190506137ac81612275565b92915050565b6000602082840312156137c8576137c761223f565b5b60006137d68482850161379d565b91505092915050565b7f4552433732313a206d696e7420746f20746865207a65726f2061646472657373600082015250565b600061381560208361230f565b9150613820826137df565b602082019050919050565b6000602082019050818103600083015261384481613808565b9050919050565b7f4552433732313a20746f6b656e20616c7265616479206d696e74656400000000600082015250565b6000613881601c8361230f565b915061388c8261384b565b602082019050919050565b600060208201905081810360008301526138b081613874565b905091905056fe4142434445464748494a4b4c4d4e4f505152535455565758595a6162636465666768696a6b6c6d6e6f707172737475767778797a303132333435363738392b2f556e204e465420636f6e20494420257320652720737461746f20636f6e6961746f2064612025732c206c6120737561207261726974612065273a202573a2646970667358221220f41ea450aaab42287849a0bbbf65bfc13c4b3f66663909b6c975c8c713e4949064736f6c63430008110033546f6e79204769616e6e757a7a692773204772696c6c6564205461727261676f6e2053616c6d6f6e",
  "linkReferences": {},
  "deployedLinkReferences": {}
}